{
  "_format": "hh-sol-artifact-1",
  "contractName": "BankConsortium",
  "sourceName": "contracts/BankConsortium.sol",
  "abi": [
    {
      "inputs": [],
      "stateMutability": "nonpayable",
      "type": "constructor"
    },
    {
      "anonymous": false,
      "inputs": [
        {
          "indexed": false,
          "internalType": "string",
          "name": "bankName",
          "type": "string"
        },
        {
          "indexed": false,
          "internalType": "address",
          "name": "bankAddress",
          "type": "address"
        },
        {
          "indexed": false,
          "internalType": "uint256",
          "name": "reserveAllocation",
          "type": "uint256"
        }
      ],
      "name": "BankRegistered",
      "type": "event"
    },
    {
      "anonymous": false,
      "inputs": [
        {
          "indexed": false,
          "internalType": "address",
          "name": "from",
          "type": "address"
        },
        {
          "indexed": false,
          "internalType": "address",
          "name": "to",
          "type": "address"
        },
        {
          "indexed": false,
          "internalType": "uint256",
          "name": "amount",
          "type": "uint256"
        },
        {
          "indexed": false,
          "internalType": "string",
          "name": "fromBank",
          "type": "string"
        },
        {
          "indexed": false,
          "internalType": "string",
          "name": "toBank",
          "type": "string"
        }
      ],
      "name": "InterBankTransfer",
      "type": "event"
    },
    {
      "anonymous": false,
      "inputs": [
        {
          "indexed": false,
          "internalType": "uint256",
          "name": "totalReserve",
          "type": "uint256"
        }
      ],
      "name": "ReserveAllocated",
      "type": "event"
    },
    {
      "inputs": [
        {
          "internalType": "uint256",
          "name": "totalPool",
          "type": "uint256"
        }
      ],
      "name": "allocateReservePool",
      "outputs": [],
      "stateMutability": "nonpayable",
      "type": "function"
    },
    {
      "inputs": [
        {
          "internalType": "address",
          "name": "",
          "type": "address"
        }
      ],
      "name": "bankAddressToName",
      "outputs": [
        {
          "internalType": "string",
          "name": "",
          "type": "string"
        }
      ],
      "stateMutability": "view",
      "type": "function"
    },
    {
      "inputs": [
        {
          "internalType": "uint256",
          "name": "",
          "type": "uint256"
        }
      ],
      "name": "bankNames",
      "outputs": [
        {
          "internalType": "string",
          "name": "",
          "type": "string"
        }
      ],
      "stateMutability": "view",
      "type": "function"
    },
    {
      "inputs": [
        {
          "internalType": "string",
          "name": "",
          "type": "string"
        }
      ],
      "name": "banks",
      "outputs": [
        {
          "internalType": "address",
          "name": "bankAddress",
          "type": "address"
        },
        {
          "internalType": "string",
          "name": "name",
          "type": "string"
        },
        {
          "internalType": "uint256",
          "name": "reserveAllocation",
          "type": "uint256"
        },
        {
          "internalType": "uint256",
          "name": "currentReserve",
          "type": "uint256"
        },
        {
          "internalType": "bool",
          "name": "isActive",
          "type": "bool"
        }
      ],
      "stateMutability": "view",
      "type": "function"
    },
    {
      "inputs": [
        {
          "internalType": "address",
          "name": "user",
          "type": "address"
        },
        {
          "internalType": "uint256",
          "name": "amount",
          "type": "uint256"
        },
        {
          "internalType": "string",
          "name": "bankName",
          "type": "string"
        }
      ],
      "name": "convertToStableCoin",
      "outputs": [
        {
          "internalType": "bool",
          "name": "",
          "type": "bool"
        }
      ],
      "stateMutability": "nonpayable",
      "type": "function"
    },
    {
      "inputs": [
        {
          "internalType": "address",
          "name": "user",
          "type": "address"
        },
        {
          "internalType": "uint256",
          "name": "amount",
          "type": "uint256"
        },
        {
          "internalType": "string",
          "name": "bankName",
          "type": "string"
        }
      ],
      "name": "convertToTokenizedDeposit",
      "outputs": [
        {
          "internalType": "bool",
          "name": "",
          "type": "bool"
        }
      ],
      "stateMutability": "nonpayable",
      "type": "function"
    },
    {
      "inputs": [
        {
          "internalType": "string",
          "name": "bankName",
          "type": "string"
        }
      ],
      "name": "getBankReserve",
      "outputs": [
        {
          "internalType": "uint256",
          "name": "",
          "type": "uint256"
        }
      ],
      "stateMutability": "view",
      "type": "function"
    },
    {
      "inputs": [],
      "name": "getTokenizedDeposit",
      "outputs": [
        {
          "internalType": "contract TokenizedDeposit",
          "name": "",
          "type": "address"
        }
      ],
      "stateMutability": "view",
      "type": "function"
    },
    {
      "inputs": [],
      "name": "getTotalReserve",
      "outputs": [
        {
          "internalType": "uint256",
          "name": "",
          "type": "uint256"
        }
      ],
      "stateMutability": "view",
      "type": "function"
    },
    {
      "inputs": [],
      "name": "owner",
      "outputs": [
        {
          "internalType": "address",
          "name": "",
          "type": "address"
        }
      ],
      "stateMutability": "view",
      "type": "function"
    },
    {
      "inputs": [
        {
          "internalType": "address",
          "name": "from",
          "type": "address"
        },
        {
          "internalType": "address",
          "name": "to",
          "type": "address"
        },
        {
          "internalType": "uint256",
          "name": "amount",
          "type": "uint256"
        },
        {
          "internalType": "string",
          "name": "fromBank",
          "type": "string"
        },
        {
          "internalType": "string",
          "name": "toBank",
          "type": "string"
        }
      ],
      "name": "processInterBankTransfer",
      "outputs": [],
      "stateMutability": "nonpayable",
      "type": "function"
    },
    {
      "inputs": [
        {
          "internalType": "string",
          "name": "bankName",
          "type": "string"
        },
        {
          "internalType": "address",
          "name": "bankAddress",
          "type": "address"
        },
        {
          "internalType": "uint256",
          "name": "reserveAllocation",
          "type": "uint256"
        }
      ],
      "name": "registerBank",
      "outputs": [],
      "stateMutability": "nonpayable",
      "type": "function"
    },
    {
      "inputs": [],
      "name": "stableCoin",
      "outputs": [
        {
          "internalType": "contract BankStableCoin",
          "name": "",
          "type": "address"
        }
      ],
      "stateMutability": "view",
      "type": "function"
    },
    {
      "inputs": [],
      "name": "tokenizedDeposit",
      "outputs": [
        {
          "internalType": "contract TokenizedDeposit",
          "name": "",
          "type": "address"
        }
      ],
      "stateMutability": "view",
      "type": "function"
    },
    {
      "inputs": [],
      "name": "totalReservePool",
      "outputs": [
        {
          "internalType": "uint256",
          "name": "",
          "type": "uint256"
        }
      ],
      "stateMutability": "view",
      "type": "function"
    }
  ],
  "bytecode": "0x608060405234801561001057600080fd5b50336000806101000a81548173ffffffffffffffffffffffffffffffffffffffff021916908373ffffffffffffffffffffffffffffffffffffffff16021790555060405161005d90610242565b604051809103906000f080158015610079573d6000803e3d6000fd5b50600160006101000a81548173ffffffffffffffffffffffffffffffffffffffff021916908373ffffffffffffffffffffffffffffffffffffffff1602179055506040516100c69061024f565b604051809103906000f0801580156100e2573d6000803e3d6000fd5b50600260006101000a81548173ffffffffffffffffffffffffffffffffffffffff021916908373ffffffffffffffffffffffffffffffffffffffff160217905550600160009054906101000a900473ffffffffffffffffffffffffffffffffffffffff1673ffffffffffffffffffffffffffffffffffffffff1663f2fde38b306040518263ffffffff1660e01b815260040161017e919061029d565b600060405180830381600087803b15801561019857600080fd5b505af11580156101ac573d6000803e3d6000fd5b50505050600260009054906101000a900473ffffffffffffffffffffffffffffffffffffffff1673ffffffffffffffffffffffffffffffffffffffff1663f2fde38b306040518263ffffffff1660e01b815260040161020b919061029d565b600060405180830381600087803b15801561022557600080fd5b505af1158015610239573d6000803e3d6000fd5b505050506102b8565b611a3d8061230c83390190565b611c2b80613d4983390190565b600073ffffffffffffffffffffffffffffffffffffffff82169050919050565b60006102878261025c565b9050919050565b6102978161027c565b82525050565b60006020820190506102b2600083018461028e565b92915050565b612045806102c76000396000f3fe608060405234801561001057600080fd5b50600436106100f55760003560e01c80638da5cb5b11610097578063dc65c40611610066578063dc65c40614610278578063ec022918146102a8578063f56fb04a146102c6578063fae2583b146102f6576100f5565b80638da5cb5b146101ec5780639262556d1461020a578063992642e51461023e5780639e5b319a1461025c576100f5565b806342353c49116100d357806342353c49146101645780634ecaef251461018257806366d22a9a146101b25780637dbf624f146101d0576100f5565b806314c2a380146100fa57806324e998e61461011657806341d6ee3c14610146575b600080fd5b610114600480360381019061010f9190611235565b610326565b005b610130600480360381019061012b9190611406565b6104f1565b60405161013d9190611490565b60405180910390f35b61014e61074d565b60405161015b919061150a565b60405180910390f35b61016c610773565b604051610179919061150a565b60405180910390f35b61019c60048036038101906101979190611235565b61079d565b6040516101a991906115a4565b60405180910390f35b6101ba610849565b6040516101c791906115d5565b60405180910390f35b6101ea60048036038101906101e591906115f0565b61084f565b005b6101f4610941565b60405161020191906116b2565b60405180910390f35b610224600480360381019061021f91906116cd565b610965565b604051610235959493929190611716565b60405180910390f35b610246610a66565b6040516102539190611791565b60405180910390f35b610276600480360381019061027191906117ac565b610a8c565b005b610292600480360381019061028d91906116cd565b610e99565b60405161029f91906115d5565b60405180910390f35b6102b0610ec4565b6040516102bd91906115d5565b60405180910390f35b6102e060048036038101906102db9190611406565b610f3c565b6040516102ed9190611490565b60405180910390f35b610310600480360381019061030b919061181b565b61114b565b60405161031d91906115a4565b60405180910390f35b60008054906101000a900473ffffffffffffffffffffffffffffffffffffffff1673ffffffffffffffffffffffffffffffffffffffff163373ffffffffffffffffffffffffffffffffffffffff16146103b4576040517f08c379a00000000000000000000000000000000000000000000000000000000081526004016103ab90611894565b60405180910390fd5b80600681905550600081905060005b6005805490508110156104555760006003600583815481106103e8576103e76118b4565b5b906000526020600020016040516103ff91906119e6565b90815260200160405180910390209050600060648260020154866104239190611a2c565b61042d9190611a9d565b905080826003018190555080846104449190611ace565b9350505080806001019150506103c3565b5060008111156104b6578060036005600081548110610477576104766118b4565b5b9060005260206000200160405161048e91906119e6565b908152602001604051809103902060030160008282546104ae9190611b02565b925050819055505b7f905b7b4266d7d4d65161fbeb685ed5ce8f0fd21a2e7e3a328b72a2b4686367f1826040516104e591906115d5565b60405180910390a15050565b60006003600460003373ffffffffffffffffffffffffffffffffffffffff1673ffffffffffffffffffffffffffffffffffffffff16815260200190815260200160002060405161054191906119e6565b908152602001604051809103902060040160009054906101000a900460ff1661059f576040517f08c379a000000000000000000000000000000000000000000000000000000000815260040161059690611ba8565b60405180910390fd5b60006003836040516105b19190611bf9565b908152602001604051809103902090508381600301541015610608576040517f08c379a00000000000000000000000000000000000000000000000000000000081526004016105ff90611c5c565b60405180910390fd5b600260009054906101000a900473ffffffffffffffffffffffffffffffffffffffff1673ffffffffffffffffffffffffffffffffffffffff1663082a979086866040518363ffffffff1660e01b8152600401610665929190611c7c565b600060405180830381600087803b15801561067f57600080fd5b505af1158015610693573d6000803e3d6000fd5b50505050838160030160008282546106ab9190611ace565b92505081905550600160009054906101000a900473ffffffffffffffffffffffffffffffffffffffff1673ffffffffffffffffffffffffffffffffffffffff166340c10f1986866040518363ffffffff1660e01b815260040161070f929190611c7c565b600060405180830381600087803b15801561072957600080fd5b505af115801561073d573d6000803e3d6000fd5b5050505060019150509392505050565b600260009054906101000a900473ffffffffffffffffffffffffffffffffffffffff1681565b6000600260009054906101000a900473ffffffffffffffffffffffffffffffffffffffff16905090565b600581815481106107ad57600080fd5b9060005260206000200160009150905080546107c890611912565b80601f01602080910402602001604051908101604052809291908181526020018280546107f490611912565b80156108415780601f1061081657610100808354040283529160200191610841565b820191906000526020600020905b81548152906001019060200180831161082457829003601f168201915b505050505081565b60065481565b6003600460003373ffffffffffffffffffffffffffffffffffffffff1673ffffffffffffffffffffffffffffffffffffffff16815260200190815260200160002060405161089d91906119e6565b908152602001604051809103902060040160009054906101000a900460ff166108fb576040517f08c379a00000000000000000000000000000000000000000000000000000000081526004016108f290611ba8565b60405180910390fd5b7fde1182e409fde7511b6d98d446728316ece68f33c939adeac159a8a3aed2114f8585858585604051610932959493929190611ca5565b60405180910390a15050505050565b60008054906101000a900473ffffffffffffffffffffffffffffffffffffffff1681565b6003818051602081018201805184825260208301602085012081835280955050505050506000915090508060000160009054906101000a900473ffffffffffffffffffffffffffffffffffffffff16908060010180546109c490611912565b80601f01602080910402602001604051908101604052809291908181526020018280546109f090611912565b8015610a3d5780601f10610a1257610100808354040283529160200191610a3d565b820191906000526020600020905b815481529060010190602001808311610a2057829003601f168201915b5050505050908060020154908060030154908060040160009054906101000a900460ff16905085565b600160009054906101000a900473ffffffffffffffffffffffffffffffffffffffff1681565b60008054906101000a900473ffffffffffffffffffffffffffffffffffffffff1673ffffffffffffffffffffffffffffffffffffffff163373ffffffffffffffffffffffffffffffffffffffff1614610b1a576040517f08c379a0000000000000000000000000000000000000000000000000000000008152600401610b1190611894565b60405180910390fd5b600073ffffffffffffffffffffffffffffffffffffffff16600384604051610b429190611bf9565b908152602001604051809103902060000160009054906101000a900473ffffffffffffffffffffffffffffffffffffffff1673ffffffffffffffffffffffffffffffffffffffff1614610bca576040517f08c379a0000000000000000000000000000000000000000000000000000000008152600401610bc190611d52565b60405180910390fd5b6040518060a001604052808373ffffffffffffffffffffffffffffffffffffffff1681526020018481526020018281526020016000815260200160011515815250600384604051610c1b9190611bf9565b908152602001604051809103902060008201518160000160006101000a81548173ffffffffffffffffffffffffffffffffffffffff021916908373ffffffffffffffffffffffffffffffffffffffff1602179055506020820151816001019081610c859190611eff565b50604082015181600201556060820151816003015560808201518160040160006101000a81548160ff02191690831515021790555090505082600460008473ffffffffffffffffffffffffffffffffffffffff1673ffffffffffffffffffffffffffffffffffffffff1681526020019081526020016000209081610d099190611eff565b50600583908060018154018082558091505060019003906000526020600020016000909190919091509081610d3e9190611eff565b50600160009054906101000a900473ffffffffffffffffffffffffffffffffffffffff1673ffffffffffffffffffffffffffffffffffffffff166394722397836040518263ffffffff1660e01b8152600401610d9a91906116b2565b600060405180830381600087803b158015610db457600080fd5b505af1158015610dc8573d6000803e3d6000fd5b50505050600260009054906101000a900473ffffffffffffffffffffffffffffffffffffffff1673ffffffffffffffffffffffffffffffffffffffff166394722397836040518263ffffffff1660e01b8152600401610e2791906116b2565b600060405180830381600087803b158015610e4157600080fd5b505af1158015610e55573d6000803e3d6000fd5b505050507f73390782bf5210dc71a79b2e46d6f59d80234964f7a2e94df36e8d57dae8084a838383604051610e8c93929190611fd1565b60405180910390a1505050565b6000600382604051610eab9190611bf9565b9081526020016040518091039020600301549050919050565b6000806000905060005b600580549050811015610f3457600360058281548110610ef157610ef06118b4565b5b90600052602060002001604051610f0891906119e6565b90815260200160405180910390206003015482610f259190611b02565b91508080600101915050610ece565b508091505090565b60006003600460003373ffffffffffffffffffffffffffffffffffffffff1673ffffffffffffffffffffffffffffffffffffffff168152602001908152602001600020604051610f8c91906119e6565b908152602001604051809103902060040160009054906101000a900460ff16610fea576040517f08c379a0000000000000000000000000000000000000000000000000000000008152600401610fe190611ba8565b60405180910390fd5b600160009054906101000a900473ffffffffffffffffffffffffffffffffffffffff1673ffffffffffffffffffffffffffffffffffffffff16639dc29fac85856040518363ffffffff1660e01b8152600401611047929190611c7c565b600060405180830381600087803b15801561106157600080fd5b505af1158015611075573d6000803e3d6000fd5b505050508260038360405161108a9190611bf9565b908152602001604051809103902060030160008282546110aa9190611b02565b92505081905550600260009054906101000a900473ffffffffffffffffffffffffffffffffffffffff1673ffffffffffffffffffffffffffffffffffffffff16636476e30185856040518363ffffffff1660e01b815260040161110e929190611c7c565b600060405180830381600087803b15801561112857600080fd5b505af115801561113c573d6000803e3d6000fd5b50505050600190509392505050565b6004602052806000526040600020600091509050805461116a90611912565b80601f016020809104026020016040519081016040528092919081815260200182805461119690611912565b80156111e35780601f106111b8576101008083540402835291602001916111e3565b820191906000526020600020905b8154815290600101906020018083116111c657829003601f168201915b505050505081565b6000604051905090565b600080fd5b600080fd5b6000819050919050565b611212816111ff565b811461121d57600080fd5b50565b60008135905061122f81611209565b92915050565b60006020828403121561124b5761124a6111f5565b5b600061125984828501611220565b91505092915050565b600073ffffffffffffffffffffffffffffffffffffffff82169050919050565b600061128d82611262565b9050919050565b61129d81611282565b81146112a857600080fd5b50565b6000813590506112ba81611294565b92915050565b600080fd5b600080fd5b6000601f19601f8301169050919050565b7f4e487b7100000000000000000000000000000000000000000000000000000000600052604160045260246000fd5b611313826112ca565b810181811067ffffffffffffffff82111715611332576113316112db565b5b80604052505050565b60006113456111eb565b9050611351828261130a565b919050565b600067ffffffffffffffff821115611371576113706112db565b5b61137a826112ca565b9050602081019050919050565b82818337600083830152505050565b60006113a96113a484611356565b61133b565b9050828152602081018484840111156113c5576113c46112c5565b5b6113d0848285611387565b509392505050565b600082601f8301126113ed576113ec6112c0565b5b81356113fd848260208601611396565b91505092915050565b60008060006060848603121561141f5761141e6111f5565b5b600061142d868287016112ab565b935050602061143e86828701611220565b925050604084013567ffffffffffffffff81111561145f5761145e6111fa565b5b61146b868287016113d8565b9150509250925092565b60008115159050919050565b61148a81611475565b82525050565b60006020820190506114a56000830184611481565b92915050565b6000819050919050565b60006114d06114cb6114c684611262565b6114ab565b611262565b9050919050565b60006114e2826114b5565b9050919050565b60006114f4826114d7565b9050919050565b611504816114e9565b82525050565b600060208201905061151f60008301846114fb565b92915050565b600081519050919050565b600082825260208201905092915050565b60005b8381101561155f578082015181840152602081019050611544565b60008484015250505050565b600061157682611525565b6115808185611530565b9350611590818560208601611541565b611599816112ca565b840191505092915050565b600060208201905081810360008301526115be818461156b565b905092915050565b6115cf816111ff565b82525050565b60006020820190506115ea60008301846115c6565b92915050565b600080600080600060a0868803121561160c5761160b6111f5565b5b600061161a888289016112ab565b955050602061162b888289016112ab565b945050604061163c88828901611220565b935050606086013567ffffffffffffffff81111561165d5761165c6111fa565b5b611669888289016113d8565b925050608086013567ffffffffffffffff81111561168a576116896111fa565b5b611696888289016113d8565b9150509295509295909350565b6116ac81611282565b82525050565b60006020820190506116c760008301846116a3565b92915050565b6000602082840312156116e3576116e26111f5565b5b600082013567ffffffffffffffff811115611701576117006111fa565b5b61170d848285016113d8565b91505092915050565b600060a08201905061172b60008301886116a3565b818103602083015261173d818761156b565b905061174c60408301866115c6565b61175960608301856115c6565b6117666080830184611481565b9695505050505050565b600061177b826114d7565b9050919050565b61178b81611770565b82525050565b60006020820190506117a66000830184611782565b92915050565b6000806000606084860312156117c5576117c46111f5565b5b600084013567ffffffffffffffff8111156117e3576117e26111fa565b5b6117ef868287016113d8565b9350506020611800868287016112ab565b925050604061181186828701611220565b9150509250925092565b600060208284031215611831576118306111f5565b5b600061183f848285016112ab565b91505092915050565b7f4f6e6c79206f776e65722063616e2063616c6c20746869730000000000000000600082015250565b600061187e601883611530565b915061188982611848565b602082019050919050565b600060208201905081810360008301526118ad81611871565b9050919050565b7f4e487b7100000000000000000000000000000000000000000000000000000000600052603260045260246000fd5b7f4e487b7100000000000000000000000000000000000000000000000000000000600052602260045260246000fd5b6000600282049050600182168061192a57607f821691505b60208210810361193d5761193c6118e3565b5b50919050565b600081905092915050565b60008190508160005260206000209050919050565b6000815461197081611912565b61197a8186611943565b9450600182166000811461199557600181146119aa576119dd565b60ff19831686528115158202860193506119dd565b6119b38561194e565b60005b838110156119d5578154818901526001820191506020810190506119b6565b838801955050505b50505092915050565b60006119f28284611963565b915081905092915050565b7f4e487b7100000000000000000000000000000000000000000000000000000000600052601160045260246000fd5b6000611a37826111ff565b9150611a42836111ff565b9250828202611a50816111ff565b91508282048414831517611a6757611a666119fd565b5b5092915050565b7f4e487b7100000000000000000000000000000000000000000000000000000000600052601260045260246000fd5b6000611aa8826111ff565b9150611ab3836111ff565b925082611ac357611ac2611a6e565b5b828204905092915050565b6000611ad9826111ff565b9150611ae4836111ff565b9250828203905081811115611afc57611afb6119fd565b5b92915050565b6000611b0d826111ff565b9150611b18836111ff565b9250828201905080821115611b3057611b2f6119fd565b5b92915050565b7f4f6e6c7920726567697374657265642062616e6b732063616e2063616c6c207460008201527f6869730000000000000000000000000000000000000000000000000000000000602082015250565b6000611b92602383611530565b9150611b9d82611b36565b604082019050919050565b60006020820190508181036000830152611bc181611b85565b9050919050565b6000611bd382611525565b611bdd8185611943565b9350611bed818560208601611541565b80840191505092915050565b6000611c058284611bc8565b915081905092915050565b7f496e73756666696369656e742072657365727665000000000000000000000000600082015250565b6000611c46601483611530565b9150611c5182611c10565b602082019050919050565b60006020820190508181036000830152611c7581611c39565b9050919050565b6000604082019050611c9160008301856116a3565b611c9e60208301846115c6565b9392505050565b600060a082019050611cba60008301886116a3565b611cc760208301876116a3565b611cd460408301866115c6565b8181036060830152611ce6818561156b565b90508181036080830152611cfa818461156b565b90509695505050505050565b7f42616e6b20616c72656164792072656769737465726564000000000000000000600082015250565b6000611d3c601783611530565b9150611d4782611d06565b602082019050919050565b60006020820190508181036000830152611d6b81611d2f565b9050919050565b60006020601f8301049050919050565b600082821b905092915050565b600060088302611dbf7fffffffffffffffffffffffffffffffffffffffffffffffffffffffffffffffff82611d82565b611dc98683611d82565b95508019841693508086168417925050509392505050565b6000611dfc611df7611df2846111ff565b6114ab565b6111ff565b9050919050565b6000819050919050565b611e1683611de1565b611e2a611e2282611e03565b848454611d8f565b825550505050565b600090565b611e3f611e32565b611e4a818484611e0d565b505050565b5b81811015611e6e57611e63600082611e37565b600181019050611e50565b5050565b601f821115611eb357611e848161194e565b611e8d84611d72565b81016020851015611e9c578190505b611eb0611ea885611d72565b830182611e4f565b50505b505050565b600082821c905092915050565b6000611ed660001984600802611eb8565b1980831691505092915050565b6000611eef8383611ec5565b9150826002028217905092915050565b611f0882611525565b67ffffffffffffffff811115611f2157611f206112db565b5b611f2b8254611912565b611f36828285611e72565b600060209050601f831160018114611f695760008415611f57578287015190505b611f618582611ee3565b865550611fc9565b601f198416611f778661194e565b60005b82811015611f9f57848901518255600182019150602085019450602081019050611f7a565b86831015611fbc5784890151611fb8601f891682611ec5565b8355505b6001600288020188555050505b505050505050565b60006060820190508181036000830152611feb818661156b565b9050611ffa60208301856116a3565b61200760408301846115c6565b94935050505056fea26469706673582212207b348fd6dfff4cf0c4f7de505fcbde2a5f277ea296a0a61e41d6d469efecc17464736f6c634300081c0033608060405234801561001057600080fd5b50336040518060400160405280600e81526020017f42616e6b537461626c65436f696e0000000000000000000000000000000000008152506040518060400160405280600381526020017f4253430000000000000000000000000000000000000000000000000000000000815250816003908161008d919061043d565b50806004908161009d919061043d565b505050600073ffffffffffffffffffffffffffffffffffffffff168173ffffffffffffffffffffffffffffffffffffffff16036101125760006040517f1e4fbdf70000000000000000000000000000000000000000000000000000000081526004016101099190610550565b60405180910390fd5b6101218161012760201b60201c565b5061056b565b6000600560009054906101000a900473ffffffffffffffffffffffffffffffffffffffff16905081600560006101000a81548173ffffffffffffffffffffffffffffffffffffffff021916908373ffffffffffffffffffffffffffffffffffffffff1602179055508173ffffffffffffffffffffffffffffffffffffffff168173ffffffffffffffffffffffffffffffffffffffff167f8be0079c531659141344cd1fd0a4f28419497f9722a3daafe3b4186f6b6457e060405160405180910390a35050565b600081519050919050565b7f4e487b7100000000000000000000000000000000000000000000000000000000600052604160045260246000fd5b7f4e487b7100000000000000000000000000000000000000000000000000000000600052602260045260246000fd5b6000600282049050600182168061026e57607f821691505b60208210810361028157610280610227565b5b50919050565b60008190508160005260206000209050919050565b60006020601f8301049050919050565b600082821b905092915050565b6000600883026102e97fffffffffffffffffffffffffffffffffffffffffffffffffffffffffffffffff826102ac565b6102f386836102ac565b95508019841693508086168417925050509392505050565b6000819050919050565b6000819050919050565b600061033a6103356103308461030b565b610315565b61030b565b9050919050565b6000819050919050565b6103548361031f565b61036861036082610341565b8484546102b9565b825550505050565b600090565b61037d610370565b61038881848461034b565b505050565b5b818110156103ac576103a1600082610375565b60018101905061038e565b5050565b601f8211156103f1576103c281610287565b6103cb8461029c565b810160208510156103da578190505b6103ee6103e68561029c565b83018261038d565b50505b505050565b600082821c905092915050565b6000610414600019846008026103f6565b1980831691505092915050565b600061042d8383610403565b9150826002028217905092915050565b610446826101ed565b67ffffffffffffffff81111561045f5761045e6101f8565b5b6104698254610256565b6104748282856103b0565b600060209050601f8311600181146104a75760008415610495578287015190505b61049f8582610421565b865550610507565b601f1984166104b586610287565b60005b828110156104dd578489015182556001820191506020850194506020810190506104b8565b868310156104fa57848901516104f6601f891682610403565b8355505b6001600288020188555050505b505050505050565b600073ffffffffffffffffffffffffffffffffffffffff82169050919050565b600061053a8261050f565b9050919050565b61054a8161052f565b82525050565b60006020820190506105656000830184610541565b92915050565b6114c38061057a6000396000f3fe608060405234801561001057600080fd5b50600436106101005760003560e01c806380c3b8c2116100975780639dc29fac116100665780639dc29fac1461029d578063a9059cbb146102b9578063dd62ed3e146102e9578063f2fde38b1461031957610100565b806380c3b8c2146102155780638da5cb5b14610245578063947223971461026357806395d89b411461027f57610100565b8063313ce567116100d3578063313ce567146101a157806340c10f19146101bf57806370a08231146101db578063715018a61461020b57610100565b806306fdde0314610105578063095ea7b31461012357806318160ddd1461015357806323b872dd14610171575b600080fd5b61010d610335565b60405161011a91906110ab565b60405180910390f35b61013d60048036038101906101389190611166565b6103c7565b60405161014a91906111c1565b60405180910390f35b61015b6103ea565b60405161016891906111eb565b60405180910390f35b61018b60048036038101906101869190611206565b6103f4565b60405161019891906111c1565b60405180910390f35b6101a9610423565b6040516101b69190611275565b60405180910390f35b6101d960048036038101906101d49190611166565b61042c565b005b6101f560048036038101906101f09190611290565b6104c6565b60405161020291906111eb565b60405180910390f35b61021361050e565b005b61022f600480360381019061022a9190611290565b610522565b60405161023c91906111c1565b60405180910390f35b61024d610542565b60405161025a91906112cc565b60405180910390f35b61027d60048036038101906102789190611290565b61056c565b005b6102876105cf565b60405161029491906110ab565b60405180910390f35b6102b760048036038101906102b29190611166565b610661565b005b6102d360048036038101906102ce9190611166565b6106fb565b6040516102e091906111c1565b60405180910390f35b61030360048036038101906102fe91906112e7565b61071e565b60405161031091906111eb565b60405180910390f35b610333600480360381019061032e9190611290565b6107a5565b005b60606003805461034490611356565b80601f016020809104026020016040519081016040528092919081815260200182805461037090611356565b80156103bd5780601f10610392576101008083540402835291602001916103bd565b820191906000526020600020905b8154815290600101906020018083116103a057829003601f168201915b5050505050905090565b6000806103d261082b565b90506103df818585610833565b600191505092915050565b6000600254905090565b6000806103ff61082b565b905061040c858285610845565b6104178585856108da565b60019150509392505050565b60006002905090565b600660003373ffffffffffffffffffffffffffffffffffffffff1673ffffffffffffffffffffffffffffffffffffffff16815260200190815260200160002060009054906101000a900460ff166104b8576040517f08c379a00000000000000000000000000000000000000000000000000000000081526004016104af906113d3565b60405180910390fd5b6104c282826109ce565b5050565b60008060008373ffffffffffffffffffffffffffffffffffffffff1673ffffffffffffffffffffffffffffffffffffffff168152602001908152602001600020549050919050565b610516610a50565b6105206000610ad7565b565b60066020528060005260406000206000915054906101000a900460ff1681565b6000600560009054906101000a900473ffffffffffffffffffffffffffffffffffffffff16905090565b610574610a50565b6001600660008373ffffffffffffffffffffffffffffffffffffffff1673ffffffffffffffffffffffffffffffffffffffff16815260200190815260200160002060006101000a81548160ff02191690831515021790555050565b6060600480546105de90611356565b80601f016020809104026020016040519081016040528092919081815260200182805461060a90611356565b80156106575780601f1061062c57610100808354040283529160200191610657565b820191906000526020600020905b81548152906001019060200180831161063a57829003601f168201915b5050505050905090565b600660003373ffffffffffffffffffffffffffffffffffffffff1673ffffffffffffffffffffffffffffffffffffffff16815260200190815260200160002060009054906101000a900460ff166106ed576040517f08c379a00000000000000000000000000000000000000000000000000000000081526004016106e4906113d3565b60405180910390fd5b6106f78282610b9d565b5050565b60008061070661082b565b90506107138185856108da565b600191505092915050565b6000600160008473ffffffffffffffffffffffffffffffffffffffff1673ffffffffffffffffffffffffffffffffffffffff16815260200190815260200160002060008373ffffffffffffffffffffffffffffffffffffffff1673ffffffffffffffffffffffffffffffffffffffff16815260200190815260200160002054905092915050565b6107ad610a50565b600073ffffffffffffffffffffffffffffffffffffffff168173ffffffffffffffffffffffffffffffffffffffff160361081f5760006040517f1e4fbdf700000000000000000000000000000000000000000000000000000000815260040161081691906112cc565b60405180910390fd5b61082881610ad7565b50565b600033905090565b6108408383836001610c1f565b505050565b6000610851848461071e565b90507fffffffffffffffffffffffffffffffffffffffffffffffffffffffffffffffff8110156108d457818110156108c4578281836040517ffb8f41b20000000000000000000000000000000000000000000000000000000081526004016108bb939291906113f3565b60405180910390fd5b6108d384848484036000610c1f565b5b50505050565b600073ffffffffffffffffffffffffffffffffffffffff168373ffffffffffffffffffffffffffffffffffffffff160361094c5760006040517f96c6fd1e00000000000000000000000000000000000000000000000000000000815260040161094391906112cc565b60405180910390fd5b600073ffffffffffffffffffffffffffffffffffffffff168273ffffffffffffffffffffffffffffffffffffffff16036109be5760006040517fec442f050000000000000000000000000000000000000000000000000000000081526004016109b591906112cc565b60405180910390fd5b6109c9838383610df6565b505050565b600073ffffffffffffffffffffffffffffffffffffffff168273ffffffffffffffffffffffffffffffffffffffff1603610a405760006040517fec442f05000000000000000000000000000000000000000000000000000000008152600401610a3791906112cc565b60405180910390fd5b610a4c60008383610df6565b5050565b610a5861082b565b73ffffffffffffffffffffffffffffffffffffffff16610a76610542565b73ffffffffffffffffffffffffffffffffffffffff1614610ad557610a9961082b565b6040517f118cdaa7000000000000000000000000000000000000000000000000000000008152600401610acc91906112cc565b60405180910390fd5b565b6000600560009054906101000a900473ffffffffffffffffffffffffffffffffffffffff16905081600560006101000a81548173ffffffffffffffffffffffffffffffffffffffff021916908373ffffffffffffffffffffffffffffffffffffffff1602179055508173ffffffffffffffffffffffffffffffffffffffff168173ffffffffffffffffffffffffffffffffffffffff167f8be0079c531659141344cd1fd0a4f28419497f9722a3daafe3b4186f6b6457e060405160405180910390a35050565b600073ffffffffffffffffffffffffffffffffffffffff168273ffffffffffffffffffffffffffffffffffffffff1603610c0f5760006040517f96c6fd1e000000000000000000000000000000000000000000000000000000008152600401610c0691906112cc565b60405180910390fd5b610c1b82600083610df6565b5050565b600073ffffffffffffffffffffffffffffffffffffffff168473ffffffffffffffffffffffffffffffffffffffff1603610c915760006040517fe602df05000000000000000000000000000000000000000000000000000000008152600401610c8891906112cc565b60405180910390fd5b600073ffffffffffffffffffffffffffffffffffffffff168373ffffffffffffffffffffffffffffffffffffffff1603610d035760006040517f94280d62000000000000000000000000000000000000000000000000000000008152600401610cfa91906112cc565b60405180910390fd5b81600160008673ffffffffffffffffffffffffffffffffffffffff1673ffffffffffffffffffffffffffffffffffffffff16815260200190815260200160002060008573ffffffffffffffffffffffffffffffffffffffff1673ffffffffffffffffffffffffffffffffffffffff168152602001908152602001600020819055508015610df0578273ffffffffffffffffffffffffffffffffffffffff168473ffffffffffffffffffffffffffffffffffffffff167f8c5be1e5ebec7d5bd14f71427d1e84f3dd0314c0f7b2291e5b200ac8c7c3b92584604051610de791906111eb565b60405180910390a35b50505050565b600073ffffffffffffffffffffffffffffffffffffffff168373ffffffffffffffffffffffffffffffffffffffff1603610e48578060026000828254610e3c9190611459565b92505081905550610f1b565b60008060008573ffffffffffffffffffffffffffffffffffffffff1673ffffffffffffffffffffffffffffffffffffffff16815260200190815260200160002054905081811015610ed4578381836040517fe450d38c000000000000000000000000000000000000000000000000000000008152600401610ecb939291906113f3565b60405180910390fd5b8181036000808673ffffffffffffffffffffffffffffffffffffffff1673ffffffffffffffffffffffffffffffffffffffff16815260200190815260200160002081905550505b600073ffffffffffffffffffffffffffffffffffffffff168273ffffffffffffffffffffffffffffffffffffffff1603610f645780600260008282540392505081905550610fb1565b806000808473ffffffffffffffffffffffffffffffffffffffff1673ffffffffffffffffffffffffffffffffffffffff168152602001908152602001600020600082825401925050819055505b8173ffffffffffffffffffffffffffffffffffffffff168373ffffffffffffffffffffffffffffffffffffffff167fddf252ad1be2c89b69c2b068fc378daa952ba7f163c4a11628f55a4df523b3ef8360405161100e91906111eb565b60405180910390a3505050565b600081519050919050565b600082825260208201905092915050565b60005b8381101561105557808201518184015260208101905061103a565b60008484015250505050565b6000601f19601f8301169050919050565b600061107d8261101b565b6110878185611026565b9350611097818560208601611037565b6110a081611061565b840191505092915050565b600060208201905081810360008301526110c58184611072565b905092915050565b600080fd5b600073ffffffffffffffffffffffffffffffffffffffff82169050919050565b60006110fd826110d2565b9050919050565b61110d816110f2565b811461111857600080fd5b50565b60008135905061112a81611104565b92915050565b6000819050919050565b61114381611130565b811461114e57600080fd5b50565b6000813590506111608161113a565b92915050565b6000806040838503121561117d5761117c6110cd565b5b600061118b8582860161111b565b925050602061119c85828601611151565b9150509250929050565b60008115159050919050565b6111bb816111a6565b82525050565b60006020820190506111d660008301846111b2565b92915050565b6111e581611130565b82525050565b600060208201905061120060008301846111dc565b92915050565b60008060006060848603121561121f5761121e6110cd565b5b600061122d8682870161111b565b935050602061123e8682870161111b565b925050604061124f86828701611151565b9150509250925092565b600060ff82169050919050565b61126f81611259565b82525050565b600060208201905061128a6000830184611266565b92915050565b6000602082840312156112a6576112a56110cd565b5b60006112b48482850161111b565b91505092915050565b6112c6816110f2565b82525050565b60006020820190506112e160008301846112bd565b92915050565b600080604083850312156112fe576112fd6110cd565b5b600061130c8582860161111b565b925050602061131d8582860161111b565b9150509250929050565b7f4e487b7100000000000000000000000000000000000000000000000000000000600052602260045260246000fd5b6000600282049050600182168061136e57607f821691505b60208210810361138157611380611327565b5b50919050565b7f4f6e6c792062616e6b732063616e2063616c6c20746869730000000000000000600082015250565b60006113bd601883611026565b91506113c882611387565b602082019050919050565b600060208201905081810360008301526113ec816113b0565b9050919050565b600060608201905061140860008301866112bd565b61141560208301856111dc565b61142260408301846111dc565b949350505050565b7f4e487b7100000000000000000000000000000000000000000000000000000000600052601160045260246000fd5b600061146482611130565b915061146f83611130565b92508282019050808211156114875761148661142a565b5b9291505056fea2646970667358221220919cb069df25cbf9b189e3b46a81761f26d2656485e2308b6b7c43d33220524164736f6c634300081c0033608060405234801561001057600080fd5b50336040518060400160405280601081526020017f546f6b656e697a65644465706f736974000000000000000000000000000000008152506040518060400160405280600381526020017f544b440000000000000000000000000000000000000000000000000000000000815250816003908161008d919061043d565b50806004908161009d919061043d565b505050600073ffffffffffffffffffffffffffffffffffffffff168173ffffffffffffffffffffffffffffffffffffffff16036101125760006040517f1e4fbdf70000000000000000000000000000000000000000000000000000000081526004016101099190610550565b60405180910390fd5b6101218161012760201b60201c565b5061056b565b6000600560009054906101000a900473ffffffffffffffffffffffffffffffffffffffff16905081600560006101000a81548173ffffffffffffffffffffffffffffffffffffffff021916908373ffffffffffffffffffffffffffffffffffffffff1602179055508173ffffffffffffffffffffffffffffffffffffffff168173ffffffffffffffffffffffffffffffffffffffff167f8be0079c531659141344cd1fd0a4f28419497f9722a3daafe3b4186f6b6457e060405160405180910390a35050565b600081519050919050565b7f4e487b7100000000000000000000000000000000000000000000000000000000600052604160045260246000fd5b7f4e487b7100000000000000000000000000000000000000000000000000000000600052602260045260246000fd5b6000600282049050600182168061026e57607f821691505b60208210810361028157610280610227565b5b50919050565b60008190508160005260206000209050919050565b60006020601f8301049050919050565b600082821b905092915050565b6000600883026102e97fffffffffffffffffffffffffffffffffffffffffffffffffffffffffffffffff826102ac565b6102f386836102ac565b95508019841693508086168417925050509392505050565b6000819050919050565b6000819050919050565b600061033a6103356103308461030b565b610315565b61030b565b9050919050565b6000819050919050565b6103548361031f565b61036861036082610341565b8484546102b9565b825550505050565b600090565b61037d610370565b61038881848461034b565b505050565b5b818110156103ac576103a1600082610375565b60018101905061038e565b5050565b601f8211156103f1576103c281610287565b6103cb8461029c565b810160208510156103da578190505b6103ee6103e68561029c565b83018261038d565b50505b505050565b600082821c905092915050565b6000610414600019846008026103f6565b1980831691505092915050565b600061042d8383610403565b9150826002028217905092915050565b610446826101ed565b67ffffffffffffffff81111561045f5761045e6101f8565b5b6104698254610256565b6104748282856103b0565b600060209050601f8311600181146104a75760008415610495578287015190505b61049f8582610421565b865550610507565b601f1984166104b586610287565b60005b828110156104dd578489015182556001820191506020850194506020810190506104b8565b868310156104fa57848901516104f6601f891682610403565b8355505b6001600288020188555050505b505050505050565b600073ffffffffffffffffffffffffffffffffffffffff82169050919050565b600061053a8261050f565b9050919050565b61054a8161052f565b82525050565b60006020820190506105656000830184610541565b92915050565b6116b18061057a6000396000f3fe608060405234801561001057600080fd5b506004361061010b5760003560e01c8063715018a6116100a2578063947223971161007157806394722397146102a657806395d89b41146102c2578063a9059cbb146102e0578063dd62ed3e14610310578063f2fde38b146103405761010b565b8063715018a614610232578063716738931461023c57806380c3b8c2146102585780638da5cb5b146102885761010b565b806323b872dd116100de57806323b872dd14610198578063313ce567146101c85780636476e301146101e657806370a08231146102025761010b565b806306fdde0314610110578063082a97901461012e578063095ea7b31461014a57806318160ddd1461017a575b600080fd5b61011861035c565b604051610125919061122d565b60405180910390f35b610148600480360381019061014391906112e8565b6103ee565b005b610164600480360381019061015f91906112e8565b6104d6565b6040516101719190611343565b60405180910390f35b6101826104f9565b60405161018f919061136d565b60405180910390f35b6101b260048036038101906101ad9190611388565b610503565b6040516101bf9190611343565b60405180910390f35b6101d0610532565b6040516101dd91906113f7565b60405180910390f35b61020060048036038101906101fb91906112e8565b61053b565b005b61021c60048036038101906102179190611412565b610623565b604051610229919061136d565b60405180910390f35b61023a61066b565b005b610256600480360381019061025191906112e8565b61067f565b005b610272600480360381019061026d9190611412565b61073e565b60405161027f9190611343565b60405180910390f35b61029061075e565b60405161029d919061144e565b60405180910390f35b6102c060048036038101906102bb9190611412565b610788565b005b6102ca6107eb565b6040516102d7919061122d565b60405180910390f35b6102fa60048036038101906102f591906112e8565b61087d565b6040516103079190611343565b60405180910390f35b61032a60048036038101906103259190611469565b6108a0565b604051610337919061136d565b60405180910390f35b61035a60048036038101906103559190611412565b610927565b005b60606003805461036b906114d8565b80601f0160208091040260200160405190810160405280929190818152602001828054610397906114d8565b80156103e45780601f106103b9576101008083540402835291602001916103e4565b820191906000526020600020905b8154815290600101906020018083116103c757829003601f168201915b5050505050905090565b600660003373ffffffffffffffffffffffffffffffffffffffff1673ffffffffffffffffffffffffffffffffffffffff16815260200190815260200160002060009054906101000a900460ff1661047a576040517f08c379a000000000000000000000000000000000000000000000000000000000815260040161047190611555565b60405180910390fd5b61048482826109ad565b8173ffffffffffffffffffffffffffffffffffffffff167fa31f3d3bde9d031bf5c82cf82f2ef1203d7d43144af761c7ef784549c183e6c6826040516104ca919061136d565b60405180910390a25050565b6000806104e1610a2f565b90506104ee818585610a37565b600191505092915050565b6000600254905090565b60008061050e610a2f565b905061051b858285610a49565b610526858585610ade565b60019150509392505050565b60006002905090565b600660003373ffffffffffffffffffffffffffffffffffffffff1673ffffffffffffffffffffffffffffffffffffffff16815260200190815260200160002060009054906101000a900460ff166105c7576040517f08c379a00000000000000000000000000000000000000000000000000000000081526004016105be90611555565b60405180910390fd5b6105d18282610bd2565b8173ffffffffffffffffffffffffffffffffffffffff167fdb6409d64c8304408d8014ece053bc98086ec13c15cb6162b32bdec5fb9007d982604051610617919061136d565b60405180910390a25050565b60008060008373ffffffffffffffffffffffffffffffffffffffff1673ffffffffffffffffffffffffffffffffffffffff168152602001908152602001600020549050919050565b610673610c54565b61067d6000610cdb565b565b8061068933610623565b10156106ca576040517f08c379a00000000000000000000000000000000000000000000000000000000081526004016106c1906115c1565b60405180910390fd5b6106d5338383610ade565b8173ffffffffffffffffffffffffffffffffffffffff163373ffffffffffffffffffffffffffffffffffffffff167f8651912b259b2ccf336e5f022bbd40f3506a9da45879c0b127f6fd21184f185783604051610732919061136d565b60405180910390a35050565b60066020528060005260406000206000915054906101000a900460ff1681565b6000600560009054906101000a900473ffffffffffffffffffffffffffffffffffffffff16905090565b610790610c54565b6001600660008373ffffffffffffffffffffffffffffffffffffffff1673ffffffffffffffffffffffffffffffffffffffff16815260200190815260200160002060006101000a81548160ff02191690831515021790555050565b6060600480546107fa906114d8565b80601f0160208091040260200160405190810160405280929190818152602001828054610826906114d8565b80156108735780601f1061084857610100808354040283529160200191610873565b820191906000526020600020905b81548152906001019060200180831161085657829003601f168201915b5050505050905090565b600080610888610a2f565b9050610895818585610ade565b600191505092915050565b6000600160008473ffffffffffffffffffffffffffffffffffffffff1673ffffffffffffffffffffffffffffffffffffffff16815260200190815260200160002060008373ffffffffffffffffffffffffffffffffffffffff1673ffffffffffffffffffffffffffffffffffffffff16815260200190815260200160002054905092915050565b61092f610c54565b600073ffffffffffffffffffffffffffffffffffffffff168173ffffffffffffffffffffffffffffffffffffffff16036109a15760006040517f1e4fbdf7000000000000000000000000000000000000000000000000000000008152600401610998919061144e565b60405180910390fd5b6109aa81610cdb565b50565b600073ffffffffffffffffffffffffffffffffffffffff168273ffffffffffffffffffffffffffffffffffffffff1603610a1f5760006040517f96c6fd1e000000000000000000000000000000000000000000000000000000008152600401610a16919061144e565b60405180910390fd5b610a2b82600083610da1565b5050565b600033905090565b610a448383836001610fc6565b505050565b6000610a5584846108a0565b90507fffffffffffffffffffffffffffffffffffffffffffffffffffffffffffffffff811015610ad85781811015610ac8578281836040517ffb8f41b2000000000000000000000000000000000000000000000000000000008152600401610abf939291906115e1565b60405180910390fd5b610ad784848484036000610fc6565b5b50505050565b600073ffffffffffffffffffffffffffffffffffffffff168373ffffffffffffffffffffffffffffffffffffffff1603610b505760006040517f96c6fd1e000000000000000000000000000000000000000000000000000000008152600401610b47919061144e565b60405180910390fd5b600073ffffffffffffffffffffffffffffffffffffffff168273ffffffffffffffffffffffffffffffffffffffff1603610bc25760006040517fec442f05000000000000000000000000000000000000000000000000000000008152600401610bb9919061144e565b60405180910390fd5b610bcd838383610da1565b505050565b600073ffffffffffffffffffffffffffffffffffffffff168273ffffffffffffffffffffffffffffffffffffffff1603610c445760006040517fec442f05000000000000000000000000000000000000000000000000000000008152600401610c3b919061144e565b60405180910390fd5b610c5060008383610da1565b5050565b610c5c610a2f565b73ffffffffffffffffffffffffffffffffffffffff16610c7a61075e565b73ffffffffffffffffffffffffffffffffffffffff1614610cd957610c9d610a2f565b6040517f118cdaa7000000000000000000000000000000000000000000000000000000008152600401610cd0919061144e565b60405180910390fd5b565b6000600560009054906101000a900473ffffffffffffffffffffffffffffffffffffffff16905081600560006101000a81548173ffffffffffffffffffffffffffffffffffffffff021916908373ffffffffffffffffffffffffffffffffffffffff1602179055508173ffffffffffffffffffffffffffffffffffffffff168173ffffffffffffffffffffffffffffffffffffffff167f8be0079c531659141344cd1fd0a4f28419497f9722a3daafe3b4186f6b6457e060405160405180910390a35050565b600073ffffffffffffffffffffffffffffffffffffffff168373ffffffffffffffffffffffffffffffffffffffff1603610df3578060026000828254610de79190611647565b92505081905550610ec6565b60008060008573ffffffffffffffffffffffffffffffffffffffff1673ffffffffffffffffffffffffffffffffffffffff16815260200190815260200160002054905081811015610e7f578381836040517fe450d38c000000000000000000000000000000000000000000000000000000008152600401610e76939291906115e1565b60405180910390fd5b8181036000808673ffffffffffffffffffffffffffffffffffffffff1673ffffffffffffffffffffffffffffffffffffffff16815260200190815260200160002081905550505b600073ffffffffffffffffffffffffffffffffffffffff168273ffffffffffffffffffffffffffffffffffffffff1603610f0f5780600260008282540392505081905550610f5c565b806000808473ffffffffffffffffffffffffffffffffffffffff1673ffffffffffffffffffffffffffffffffffffffff168152602001908152602001600020600082825401925050819055505b8173ffffffffffffffffffffffffffffffffffffffff168373ffffffffffffffffffffffffffffffffffffffff167fddf252ad1be2c89b69c2b068fc378daa952ba7f163c4a11628f55a4df523b3ef83604051610fb9919061136d565b60405180910390a3505050565b600073ffffffffffffffffffffffffffffffffffffffff168473ffffffffffffffffffffffffffffffffffffffff16036110385760006040517fe602df0500000000000000000000000000000000000000000000000000000000815260040161102f919061144e565b60405180910390fd5b600073ffffffffffffffffffffffffffffffffffffffff168373ffffffffffffffffffffffffffffffffffffffff16036110aa5760006040517f94280d620000000000000000000000000000000000000000000000000000000081526004016110a1919061144e565b60405180910390fd5b81600160008673ffffffffffffffffffffffffffffffffffffffff1673ffffffffffffffffffffffffffffffffffffffff16815260200190815260200160002060008573ffffffffffffffffffffffffffffffffffffffff1673ffffffffffffffffffffffffffffffffffffffff168152602001908152602001600020819055508015611197578273ffffffffffffffffffffffffffffffffffffffff168473ffffffffffffffffffffffffffffffffffffffff167f8c5be1e5ebec7d5bd14f71427d1e84f3dd0314c0f7b2291e5b200ac8c7c3b9258460405161118e919061136d565b60405180910390a35b50505050565b600081519050919050565b600082825260208201905092915050565b60005b838110156111d75780820151818401526020810190506111bc565b60008484015250505050565b6000601f19601f8301169050919050565b60006111ff8261119d565b61120981856111a8565b93506112198185602086016111b9565b611222816111e3565b840191505092915050565b6000602082019050818103600083015261124781846111f4565b905092915050565b600080fd5b600073ffffffffffffffffffffffffffffffffffffffff82169050919050565b600061127f82611254565b9050919050565b61128f81611274565b811461129a57600080fd5b50565b6000813590506112ac81611286565b92915050565b6000819050919050565b6112c5816112b2565b81146112d057600080fd5b50565b6000813590506112e2816112bc565b92915050565b600080604083850312156112ff576112fe61124f565b5b600061130d8582860161129d565b925050602061131e858286016112d3565b9150509250929050565b60008115159050919050565b61133d81611328565b82525050565b60006020820190506113586000830184611334565b92915050565b611367816112b2565b82525050565b6000602082019050611382600083018461135e565b92915050565b6000806000606084860312156113a1576113a061124f565b5b60006113af8682870161129d565b93505060206113c08682870161129d565b92505060406113d1868287016112d3565b9150509250925092565b600060ff82169050919050565b6113f1816113db565b82525050565b600060208201905061140c60008301846113e8565b92915050565b6000602082840312156114285761142761124f565b5b60006114368482850161129d565b91505092915050565b61144881611274565b82525050565b6000602082019050611463600083018461143f565b92915050565b600080604083850312156114805761147f61124f565b5b600061148e8582860161129d565b925050602061149f8582860161129d565b9150509250929050565b7f4e487b7100000000000000000000000000000000000000000000000000000000600052602260045260246000fd5b600060028204905060018216806114f057607f821691505b602082108103611503576115026114a9565b5b50919050565b7f4f6e6c792062616e6b732063616e2063616c6c20746869730000000000000000600082015250565b600061153f6018836111a8565b915061154a82611509565b602082019050919050565b6000602082019050818103600083015261156e81611532565b9050919050565b7f496e73756666696369656e742062616c616e6365000000000000000000000000600082015250565b60006115ab6014836111a8565b91506115b682611575565b602082019050919050565b600060208201905081810360008301526115da8161159e565b9050919050565b60006060820190506115f6600083018661143f565b611603602083018561135e565b611610604083018461135e565b949350505050565b7f4e487b7100000000000000000000000000000000000000000000000000000000600052601160045260246000fd5b6000611652826112b2565b915061165d836112b2565b925082820190508082111561167557611674611618565b5b9291505056fea2646970667358221220b58303014ca639ac701a88f656059cf4cc30118717b01736b2ddd0066f2ce05b64736f6c634300081c0033",
  "linkReferences": {},
  "deployedLinkReferences": {}
}