{
  "_format": "hh-sol-artifact-1",
  "contractName": "Bank",
  "sourceName": "contracts/Bank.sol",
  "abi": [
    {
      "inputs": [
        {
          "internalType": "string",
          "name": "_name",
          "type": "string"
        },
        {
          "internalType": "address",
          "name": "_consortium",
          "type": "address"
        }
      ],
      "stateMutability": "nonpayable",
      "type": "constructor"
    },
    {
      "anonymous": false,
      "inputs": [
        {
          "indexed": false,
          "internalType": "address",
          "name": "customer",
          "type": "address"
        },
        {
          "indexed": false,
          "internalType": "uint256",
          "name": "amount",
          "type": "uint256"
        }
      ],
      "name": "ConversionToStable",
      "type": "event"
    },
    {
      "anonymous": false,
      "inputs": [
        {
          "indexed": false,
          "internalType": "address",
          "name": "customer",
          "type": "address"
        },
        {
          "indexed": false,
          "internalType": "uint256",
          "name": "amount",
          "type": "uint256"
        }
      ],
      "name": "ConversionToTokenized",
      "type": "event"
    },
    {
      "anonymous": false,
      "inputs": [
        {
          "indexed": false,
          "internalType": "address",
          "name": "customer",
          "type": "address"
        }
      ],
      "name": "CustomerRegistered",
      "type": "event"
    },
    {
      "anonymous": false,
      "inputs": [
        {
          "indexed": false,
          "internalType": "address",
          "name": "customer",
          "type": "address"
        },
        {
          "indexed": false,
          "internalType": "uint256",
          "name": "amount",
          "type": "uint256"
        }
      ],
      "name": "DepositMade",
      "type": "event"
    },
    {
      "anonymous": false,
      "inputs": [
        {
          "indexed": false,
          "internalType": "address",
          "name": "customer",
          "type": "address"
        },
        {
          "indexed": false,
          "internalType": "uint256",
          "name": "amount",
          "type": "uint256"
        }
      ],
      "name": "WithdrawalMade",
      "type": "event"
    },
    {
      "inputs": [],
      "name": "consortium",
      "outputs": [
        {
          "internalType": "contract BankConsortium",
          "name": "",
          "type": "address"
        }
      ],
      "stateMutability": "view",
      "type": "function"
    },
    {
      "inputs": [
        {
          "internalType": "uint256",
          "name": "amount",
          "type": "uint256"
        }
      ],
      "name": "convertToStableCoin",
      "outputs": [],
      "stateMutability": "nonpayable",
      "type": "function"
    },
    {
      "inputs": [
        {
          "internalType": "uint256",
          "name": "amount",
          "type": "uint256"
        }
      ],
      "name": "convertToTokenizedDeposit",
      "outputs": [],
      "stateMutability": "nonpayable",
      "type": "function"
    },
    {
      "inputs": [
        {
          "internalType": "uint256",
          "name": "",
          "type": "uint256"
        }
      ],
      "name": "customerList",
      "outputs": [
        {
          "internalType": "address",
          "name": "",
          "type": "address"
        }
      ],
      "stateMutability": "view",
      "type": "function"
    },
    {
      "inputs": [
        {
          "internalType": "address",
          "name": "",
          "type": "address"
        }
      ],
      "name": "customers",
      "outputs": [
        {
          "internalType": "bool",
          "name": "",
          "type": "bool"
        }
      ],
      "stateMutability": "view",
      "type": "function"
    },
    {
      "inputs": [],
      "name": "deposit",
      "outputs": [],
      "stateMutability": "payable",
      "type": "function"
    },
    {
      "inputs": [],
      "name": "getCustomerCount",
      "outputs": [
        {
          "internalType": "uint256",
          "name": "",
          "type": "uint256"
        }
      ],
      "stateMutability": "view",
      "type": "function"
    },
    {
      "inputs": [
        {
          "internalType": "address",
          "name": "to",
          "type": "address"
        },
        {
          "internalType": "uint256",
          "name": "amount",
          "type": "uint256"
        }
      ],
      "name": "intraBankTransfer",
      "outputs": [],
      "stateMutability": "nonpayable",
      "type": "function"
    },
    {
      "inputs": [
        {
          "internalType": "address",
          "name": "addr",
          "type": "address"
        }
      ],
      "name": "isCustomer",
      "outputs": [
        {
          "internalType": "bool",
          "name": "",
          "type": "bool"
        }
      ],
      "stateMutability": "view",
      "type": "function"
    },
    {
      "inputs": [],
      "name": "manager",
      "outputs": [
        {
          "internalType": "address",
          "name": "",
          "type": "address"
        }
      ],
      "stateMutability": "view",
      "type": "function"
    },
    {
      "inputs": [],
      "name": "name",
      "outputs": [
        {
          "internalType": "string",
          "name": "",
          "type": "string"
        }
      ],
      "stateMutability": "view",
      "type": "function"
    },
    {
      "inputs": [
        {
          "internalType": "address",
          "name": "customer",
          "type": "address"
        }
      ],
      "name": "registerCustomer",
      "outputs": [],
      "stateMutability": "nonpayable",
      "type": "function"
    },
    {
      "inputs": [
        {
          "internalType": "uint256",
          "name": "amount",
          "type": "uint256"
        }
      ],
      "name": "withdraw",
      "outputs": [],
      "stateMutability": "nonpayable",
      "type": "function"
    },
    {
      "stateMutability": "payable",
      "type": "receive"
    }
  ],
  "bytecode": "0x608060405234801561001057600080fd5b506040516123e73803806123e78339818101604052810190610032919061029e565b8160009081610041919061051b565b5033600160006101000a81548173ffffffffffffffffffffffffffffffffffffffff021916908373ffffffffffffffffffffffffffffffffffffffff16021790555080600260006101000a81548173ffffffffffffffffffffffffffffffffffffffff021916908373ffffffffffffffffffffffffffffffffffffffff16021790555050506105ed565b6000604051905090565b600080fd5b600080fd5b600080fd5b600080fd5b6000601f19601f8301169050919050565b7f4e487b7100000000000000000000000000000000000000000000000000000000600052604160045260246000fd5b610132826100e9565b810181811067ffffffffffffffff82111715610151576101506100fa565b5b80604052505050565b60006101646100cb565b90506101708282610129565b919050565b600067ffffffffffffffff8211156101905761018f6100fa565b5b610199826100e9565b9050602081019050919050565b60005b838110156101c45780820151818401526020810190506101a9565b60008484015250505050565b60006101e36101de84610175565b61015a565b9050828152602081018484840111156101ff576101fe6100e4565b5b61020a8482856101a6565b509392505050565b600082601f830112610227576102266100df565b5b81516102378482602086016101d0565b91505092915050565b600073ffffffffffffffffffffffffffffffffffffffff82169050919050565b600061026b82610240565b9050919050565b61027b81610260565b811461028657600080fd5b50565b60008151905061029881610272565b92915050565b600080604083850312156102b5576102b46100d5565b5b600083015167ffffffffffffffff8111156102d3576102d26100da565b5b6102df85828601610212565b92505060206102f085828601610289565b9150509250929050565b600081519050919050565b7f4e487b7100000000000000000000000000000000000000000000000000000000600052602260045260246000fd5b6000600282049050600182168061034c57607f821691505b60208210810361035f5761035e610305565b5b50919050565b60008190508160005260206000209050919050565b60006020601f8301049050919050565b600082821b905092915050565b6000600883026103c77fffffffffffffffffffffffffffffffffffffffffffffffffffffffffffffffff8261038a565b6103d1868361038a565b95508019841693508086168417925050509392505050565b6000819050919050565b6000819050919050565b600061041861041361040e846103e9565b6103f3565b6103e9565b9050919050565b6000819050919050565b610432836103fd565b61044661043e8261041f565b848454610397565b825550505050565b600090565b61045b61044e565b610466818484610429565b505050565b5b8181101561048a5761047f600082610453565b60018101905061046c565b5050565b601f8211156104cf576104a081610365565b6104a98461037a565b810160208510156104b8578190505b6104cc6104c48561037a565b83018261046b565b50505b505050565b600082821c905092915050565b60006104f2600019846008026104d4565b1980831691505092915050565b600061050b83836104e1565b9150826002028217905092915050565b610524826102fa565b67ffffffffffffffff81111561053d5761053c6100fa565b5b6105478254610334565b61055282828561048e565b600060209050601f8311600181146105855760008415610573578287015190505b61057d85826104ff565b8655506105e5565b601f19841661059386610365565b60005b828110156105bb57848901518255600182019150602085019450602081019050610596565b868310156105d857848901516105d4601f8916826104e1565b8355505b6001600288020188555050505b505050505050565b611deb806105fc6000396000f3fe6080604052600436106100c55760003560e01c8063481c6a751161007f5780639ad18765116100595780639ad1876514610284578063d0e30db0146102af578063e662ffef146102b9578063f3cca775146102e2576100cc565b8063481c6a751461020757806371673893146102325780637520320f1461025b576100cc565b8062d1d4e9146100d157806306fdde031461010e5780632027d7461461013957806328fd5e83146101645780632e1a7d4d146101a1578063336989ae146101ca576100cc565b366100cc57005b600080fd5b3480156100dd57600080fd5b506100f860048036038101906100f39190611464565b61030b565b60405161010591906114d2565b60405180910390f35b34801561011a57600080fd5b5061012361034a565b604051610130919061157d565b60405180910390f35b34801561014557600080fd5b5061014e6103d8565b60405161015b91906115ae565b60405180910390f35b34801561017057600080fd5b5061018b600480360381019061018691906115f5565b6103e5565b604051610198919061163d565b60405180910390f35b3480156101ad57600080fd5b506101c860048036038101906101c39190611464565b61043b565b005b3480156101d657600080fd5b506101f160048036038101906101ec91906115f5565b610793565b6040516101fe919061163d565b60405180910390f35b34801561021357600080fd5b5061021c6107b3565b60405161022991906114d2565b60405180910390f35b34801561023e57600080fd5b5061025960048036038101906102549190611658565b6107d9565b005b34801561026757600080fd5b50610282600480360381019061027d91906115f5565b6109f2565b005b34801561029057600080fd5b50610299610c04565b6040516102a691906116f7565b60405180910390f35b6102b7610c2a565b005b3480156102c557600080fd5b506102e060048036038101906102db9190611464565b610e31565b005b3480156102ee57600080fd5b5061030960048036038101906103049190611464565b61112d565b005b6004818154811061031b57600080fd5b906000526020600020016000915054906101000a900473ffffffffffffffffffffffffffffffffffffffff1681565b6000805461035790611741565b80601f016020809104026020016040519081016040528092919081815260200182805461038390611741565b80156103d05780601f106103a5576101008083540402835291602001916103d0565b820191906000526020600020905b8154815290600101906020018083116103b357829003601f168201915b505050505081565b6000600480549050905090565b6000600360008373ffffffffffffffffffffffffffffffffffffffff1673ffffffffffffffffffffffffffffffffffffffff16815260200190815260200160002060009054906101000a900460ff169050919050565b600360003373ffffffffffffffffffffffffffffffffffffffff1673ffffffffffffffffffffffffffffffffffffffff16815260200190815260200160002060009054906101000a900460ff166104c7576040517f08c379a00000000000000000000000000000000000000000000000000000000081526004016104be906117e4565b60405180910390fd5b80600260009054906101000a900473ffffffffffffffffffffffffffffffffffffffff1673ffffffffffffffffffffffffffffffffffffffff166341d6ee3c6040518163ffffffff1660e01b8152600401602060405180830381865afa158015610535573d6000803e3d6000fd5b505050506040513d601f19601f820116820180604052508101906105599190611842565b73ffffffffffffffffffffffffffffffffffffffff166370a08231336040518263ffffffff1660e01b815260040161059191906114d2565b602060405180830381865afa1580156105ae573d6000803e3d6000fd5b505050506040513d601f19601f820116820180604052508101906105d29190611884565b1015610613576040517f08c379a000000000000000000000000000000000000000000000000000000000815260040161060a906118fd565b60405180910390fd5b600260009054906101000a900473ffffffffffffffffffffffffffffffffffffffff1673ffffffffffffffffffffffffffffffffffffffff166341d6ee3c6040518163ffffffff1660e01b8152600401602060405180830381865afa158015610680573d6000803e3d6000fd5b505050506040513d601f19601f820116820180604052508101906106a49190611842565b73ffffffffffffffffffffffffffffffffffffffff1663082a979033836040518363ffffffff1660e01b81526004016106de92919061191d565b600060405180830381600087803b1580156106f857600080fd5b505af115801561070c573d6000803e3d6000fd5b505050503373ffffffffffffffffffffffffffffffffffffffff166108fc829081150290604051600060405180830381858888f19350505050158015610756573d6000803e3d6000fd5b507fbc158bb64f05d6383aea69bbb0b20c1bbf4b7a18f63359c5649b7c39e29d3884338260405161078892919061191d565b60405180910390a150565b60036020528060005260406000206000915054906101000a900460ff1681565b600160009054906101000a900473ffffffffffffffffffffffffffffffffffffffff1681565b600360003373ffffffffffffffffffffffffffffffffffffffff1673ffffffffffffffffffffffffffffffffffffffff16815260200190815260200160002060009054906101000a900460ff16610865576040517f08c379a000000000000000000000000000000000000000000000000000000000815260040161085c906117e4565b60405180910390fd5b600360008373ffffffffffffffffffffffffffffffffffffffff1673ffffffffffffffffffffffffffffffffffffffff16815260200190815260200160002060009054906101000a900460ff166108f1576040517f08c379a00000000000000000000000000000000000000000000000000000000081526004016108e8906119b8565b60405180910390fd5b600260009054906101000a900473ffffffffffffffffffffffffffffffffffffffff1673ffffffffffffffffffffffffffffffffffffffff166341d6ee3c6040518163ffffffff1660e01b8152600401602060405180830381865afa15801561095e573d6000803e3d6000fd5b505050506040513d601f19601f820116820180604052508101906109829190611842565b73ffffffffffffffffffffffffffffffffffffffff16637167389383836040518363ffffffff1660e01b81526004016109bc92919061191d565b600060405180830381600087803b1580156109d657600080fd5b505af11580156109ea573d6000803e3d6000fd5b505050505050565b600160009054906101000a900473ffffffffffffffffffffffffffffffffffffffff1673ffffffffffffffffffffffffffffffffffffffff163373ffffffffffffffffffffffffffffffffffffffff1614610a82576040517f08c379a0000000000000000000000000000000000000000000000000000000008152600401610a7990611a24565b60405180910390fd5b600360008273ffffffffffffffffffffffffffffffffffffffff1673ffffffffffffffffffffffffffffffffffffffff16815260200190815260200160002060009054906101000a900460ff1615610b0f576040517f08c379a0000000000000000000000000000000000000000000000000000000008152600401610b0690611a90565b60405180910390fd5b6001600360008373ffffffffffffffffffffffffffffffffffffffff1673ffffffffffffffffffffffffffffffffffffffff16815260200190815260200160002060006101000a81548160ff0219169083151502179055506004819080600181540180825580915050600190039060005260206000200160009091909190916101000a81548173ffffffffffffffffffffffffffffffffffffffff021916908373ffffffffffffffffffffffffffffffffffffffff1602179055507f155e8619f4d23b96769599cb9af87da3e06a360082869c18578011da9a06e67081604051610bf991906114d2565b60405180910390a150565b600260009054906101000a900473ffffffffffffffffffffffffffffffffffffffff1681565b600360003373ffffffffffffffffffffffffffffffffffffffff1673ffffffffffffffffffffffffffffffffffffffff16815260200190815260200160002060009054906101000a900460ff16610cb6576040517f08c379a0000000000000000000000000000000000000000000000000000000008152600401610cad906117e4565b60405180910390fd5b60003411610cf9576040517f08c379a0000000000000000000000000000000000000000000000000000000008152600401610cf090611b22565b60405180910390fd5b600260009054906101000a900473ffffffffffffffffffffffffffffffffffffffff1673ffffffffffffffffffffffffffffffffffffffff166341d6ee3c6040518163ffffffff1660e01b8152600401602060405180830381865afa158015610d66573d6000803e3d6000fd5b505050506040513d601f19601f82011682018060405250810190610d8a9190611842565b73ffffffffffffffffffffffffffffffffffffffff16636476e30133346040518363ffffffff1660e01b8152600401610dc492919061191d565b600060405180830381600087803b158015610dde57600080fd5b505af1158015610df2573d6000803e3d6000fd5b505050507fd15c9547ea5c06670c0010ce19bc32d54682a4b3801ece7f3ab0c3f17106b4bb3334604051610e2792919061191d565b60405180910390a1565b600360003373ffffffffffffffffffffffffffffffffffffffff1673ffffffffffffffffffffffffffffffffffffffff16815260200190815260200160002060009054906101000a900460ff16610ebd576040517f08c379a0000000000000000000000000000000000000000000000000000000008152600401610eb4906117e4565b60405180910390fd5b80600260009054906101000a900473ffffffffffffffffffffffffffffffffffffffff1673ffffffffffffffffffffffffffffffffffffffff1663992642e56040518163ffffffff1660e01b8152600401602060405180830381865afa158015610f2b573d6000803e3d6000fd5b505050506040513d601f19601f82011682018060405250810190610f4f9190611b80565b73ffffffffffffffffffffffffffffffffffffffff166370a08231336040518263ffffffff1660e01b8152600401610f8791906114d2565b602060405180830381865afa158015610fa4573d6000803e3d6000fd5b505050506040513d601f19601f82011682018060405250810190610fc89190611884565b1015611009576040517f08c379a000000000000000000000000000000000000000000000000000000000815260040161100090611bf9565b60405180910390fd5b6000600260009054906101000a900473ffffffffffffffffffffffffffffffffffffffff1673ffffffffffffffffffffffffffffffffffffffff1663f56fb04a338460006040518463ffffffff1660e01b815260040161106b93929190611cb2565b6020604051808303816000875af115801561108a573d6000803e3d6000fd5b505050506040513d601f19601f820116820180604052508101906110ae9190611d1c565b9050806110f0576040517f08c379a00000000000000000000000000000000000000000000000000000000081526004016110e790611d95565b60405180910390fd5b7f0459f83ddba64854ca13cf61264c2ac4095262e46b23310287f9cc1cd0512ea3338360405161112192919061191d565b60405180910390a15050565b600360003373ffffffffffffffffffffffffffffffffffffffff1673ffffffffffffffffffffffffffffffffffffffff16815260200190815260200160002060009054906101000a900460ff166111b9576040517f08c379a00000000000000000000000000000000000000000000000000000000081526004016111b0906117e4565b60405180910390fd5b80600260009054906101000a900473ffffffffffffffffffffffffffffffffffffffff1673ffffffffffffffffffffffffffffffffffffffff166341d6ee3c6040518163ffffffff1660e01b8152600401602060405180830381865afa158015611227573d6000803e3d6000fd5b505050506040513d601f19601f8201168201806040525081019061124b9190611842565b73ffffffffffffffffffffffffffffffffffffffff166370a08231336040518263ffffffff1660e01b815260040161128391906114d2565b602060405180830381865afa1580156112a0573d6000803e3d6000fd5b505050506040513d601f19601f820116820180604052508101906112c49190611884565b1015611305576040517f08c379a00000000000000000000000000000000000000000000000000000000081526004016112fc906118fd565b60405180910390fd5b6000600260009054906101000a900473ffffffffffffffffffffffffffffffffffffffff1673ffffffffffffffffffffffffffffffffffffffff166324e998e6338460006040518463ffffffff1660e01b815260040161136793929190611cb2565b6020604051808303816000875af1158015611386573d6000803e3d6000fd5b505050506040513d601f19601f820116820180604052508101906113aa9190611d1c565b9050806113ec576040517f08c379a00000000000000000000000000000000000000000000000000000000081526004016113e390611d95565b60405180910390fd5b7fe292d1b8bf97467573636c5e3f028e054c9e74ba3b2310346a41716e18d63b1f338360405161141d92919061191d565b60405180910390a15050565b600080fd5b6000819050919050565b6114418161142e565b811461144c57600080fd5b50565b60008135905061145e81611438565b92915050565b60006020828403121561147a57611479611429565b5b60006114888482850161144f565b91505092915050565b600073ffffffffffffffffffffffffffffffffffffffff82169050919050565b60006114bc82611491565b9050919050565b6114cc816114b1565b82525050565b60006020820190506114e760008301846114c3565b92915050565b600081519050919050565b600082825260208201905092915050565b60005b8381101561152757808201518184015260208101905061150c565b60008484015250505050565b6000601f19601f8301169050919050565b600061154f826114ed565b61155981856114f8565b9350611569818560208601611509565b61157281611533565b840191505092915050565b600060208201905081810360008301526115978184611544565b905092915050565b6115a88161142e565b82525050565b60006020820190506115c3600083018461159f565b92915050565b6115d2816114b1565b81146115dd57600080fd5b50565b6000813590506115ef816115c9565b92915050565b60006020828403121561160b5761160a611429565b5b6000611619848285016115e0565b91505092915050565b60008115159050919050565b61163781611622565b82525050565b6000602082019050611652600083018461162e565b92915050565b6000806040838503121561166f5761166e611429565b5b600061167d858286016115e0565b925050602061168e8582860161144f565b9150509250929050565b6000819050919050565b60006116bd6116b86116b384611491565b611698565b611491565b9050919050565b60006116cf826116a2565b9050919050565b60006116e1826116c4565b9050919050565b6116f1816116d6565b82525050565b600060208201905061170c60008301846116e8565b92915050565b7f4e487b7100000000000000000000000000000000000000000000000000000000600052602260045260246000fd5b6000600282049050600182168061175957607f821691505b60208210810361176c5761176b611712565b5b50919050565b7f4f6e6c79207265676973746572656420637573746f6d6572732063616e20636160008201527f6c6c207468697300000000000000000000000000000000000000000000000000602082015250565b60006117ce6027836114f8565b91506117d982611772565b604082019050919050565b600060208201905081810360008301526117fd816117c1565b9050919050565b600061180f826114b1565b9050919050565b61181f81611804565b811461182a57600080fd5b50565b60008151905061183c81611816565b92915050565b60006020828403121561185857611857611429565b5b60006118668482850161182d565b91505092915050565b60008151905061187e81611438565b92915050565b60006020828403121561189a57611899611429565b5b60006118a88482850161186f565b91505092915050565b7f496e73756666696369656e7420746f6b656e697a6564206465706f7369740000600082015250565b60006118e7601e836114f8565b91506118f2826118b1565b602082019050919050565b60006020820190508181036000830152611916816118da565b9050919050565b600060408201905061193260008301856114c3565b61193f602083018461159f565b9392505050565b7f526563697069656e74206d757374206265206120637573746f6d6572206f662060008201527f746869732062616e6b0000000000000000000000000000000000000000000000602082015250565b60006119a26029836114f8565b91506119ad82611946565b604082019050919050565b600060208201905081810360008301526119d181611995565b9050919050565b7f4f6e6c79206d616e616765722063616e2063616c6c2074686973000000000000600082015250565b6000611a0e601a836114f8565b9150611a19826119d8565b602082019050919050565b60006020820190508181036000830152611a3d81611a01565b9050919050565b7f437573746f6d657220616c726561647920726567697374657265640000000000600082015250565b6000611a7a601b836114f8565b9150611a8582611a44565b602082019050919050565b60006020820190508181036000830152611aa981611a6d565b9050919050565b7f4465706f73697420616d6f756e74206d7573742062652067726561746572207460008201527f68616e2030000000000000000000000000000000000000000000000000000000602082015250565b6000611b0c6025836114f8565b9150611b1782611ab0565b604082019050919050565b60006020820190508181036000830152611b3b81611aff565b9050919050565b6000611b4d826114b1565b9050919050565b611b5d81611b42565b8114611b6857600080fd5b50565b600081519050611b7a81611b54565b92915050565b600060208284031215611b9657611b95611429565b5b6000611ba484828501611b6b565b91505092915050565b7f496e73756666696369656e7420737461626c6520636f696e7300000000000000600082015250565b6000611be36019836114f8565b9150611bee82611bad565b602082019050919050565b60006020820190508181036000830152611c1281611bd6565b9050919050565b60008190508160005260206000209050919050565b60008154611c3b81611741565b611c4581866114f8565b94506001821660008114611c605760018114611c7657611ca9565b60ff198316865281151560200286019350611ca9565b611c7f85611c19565b60005b83811015611ca157815481890152600182019150602081019050611c82565b808801955050505b50505092915050565b6000606082019050611cc760008301866114c3565b611cd4602083018561159f565b8181036040830152611ce68184611c2e565b9050949350505050565b611cf981611622565b8114611d0457600080fd5b50565b600081519050611d1681611cf0565b92915050565b600060208284031215611d3257611d31611429565b5b6000611d4084828501611d07565b91505092915050565b7f436f6e76657273696f6e206661696c6564000000000000000000000000000000600082015250565b6000611d7f6011836114f8565b9150611d8a82611d49565b602082019050919050565b60006020820190508181036000830152611dae81611d72565b905091905056fea2646970667358221220c182023fd2531b5710fffad0e75fec75167421f5cc25aa73ce0a33119241a45b64736f6c634300081c0033",
  "linkReferences": {},
  "deployedLinkReferences": {}
}